:020000040000FA
:08000000803102288731CF2F67
:10000A0080300800F601F11F0B280C281328F0098C
:10001A00F109F00A0319F10AF601F60AF31F162884
:10002A0017282028F209F309F20A0319F30A013002
:10003A00F4007408F606F701F80170087104031950
:10004A00272828285728F501F50A34280130F035E1
:10005A00F10D890B2C280130F4007408F507F11F03
:10006A00372838282B280130F735F80D890B39281D
:10007A0071087302031D432870087202031C462884
:10008A0047284C287008F2027108F33B77140130B4
:10009A00F136F00C890B4D280130F502031D562864
:1000AA0057283828760803195B285C286128F7093D
:1000BA00F809F70A0319F80A7808F1007708F00036
:1000CA00080001309F313F2780319E31B5268031AB
:1000DA000530F9000F30F800F130890B7228F80B5F
:1000EA007228F90B72280000AE309F312B2780311D
:1000FA00D5309F312B27803180309F312B2780319B
:10010A00A8309F312B2780313F309F312B278031F8
:10011A00D3309F312B27803100309F312B278031FC
:10012A0040309F312B2780318D309F312B278031F2
:10013A0014309F312B27803120309F312B2780317B
:10014A0000309F312B278031A1309F312B278031FE
:10015A00C8309F312B278031DA309F312B278031ED
:10016A0012309F312B27803181309F312B278031EC
:10017A00CF309F312B278031D9309F312B278031C7
:10018A00F1309F312B278031DB309F312B27803193
:10019A0040309F312B278031A4309F312B2780316B
:1001AA00A6309F312B2780312E309F312B2780316B
:1001BA00AF309F312B2780310030F0008830F100BA
:1001CA009731462780310530F9000F30F800F130B9
:1001DA00890BED28F80BED28F90BED2800009F316B
:1001EA00A82780310800FA1BFB28FC28D329803174
:1001FA00052080314001A0007A08803AA1008030B1
:10020A002102031D0A292008790203180D290E2943
:10021A00D329FC1B11291229D3299731442780316C
:10022A004001A0007C08803AA10080302102031D11
:10023A00202920087B02031C23292429BF29D3292A
:10024A000130A0007B080739890A2C29A035890BBF
:10025A002B292008A1000830F0000030F1007C08AA
:10026A00F3007B08F20080310720803170084001DA
:10027A00A2007108A3000730A235A30D890B4129FA
:10028A00F030A4002330A50022082407A600230882
:10029A00253DA7007908260786007A08273D8700AA
:1002AA0021088104D3290130A0007B080739890A73
:1002BA005F29A035890B5E292008FF3AA100083082
:1002CA00F0000030F1007C08F3007B08F200803176
:1002DA000720803170084001A2007108A30007308E
:1002EA00A235A30D890B7529F030A4002330A5008F
:1002FA0022082407A6002308253DA7007908260717
:10030A0086007A08273D870021088105D329013014
:10031A00A0007B080739890A9329A035890B9229FD
:10032A002008A1000830F0000030F1007C08F3003A
:10033A007B08F20080310720803170084001A2005A
:10034A007108A3000730A235A30D890BA829F03044
:10035A00A4002330A50022082407A6002308253D6F
:10036A00A7007908260786007A08273D8700210812
:10037A008106D3297D084001A000A1012108003A85
:10038A000319C829D3292008003A03195829013A20
:10039A0003192529033A03198C29D3290800400196
:1003AA00C301C401C501C601B501B6016208073916
:1003BA00031DE029E129FB2A6108AD00AE012D08E1
:1003CA00F9002E08FA000830F0000030F100620847
:1003DA00AF00B0012F08F2003008F3008031072087
:1003EA0081317108FC007008FB009F315727813169
:1003FA007A084001BA007908B90063082C02F900AA
:10040A00FA01031CFA033A08FC003908FB009F3181
:10041A00572781317908043E4001BD0000307A3DFA
:10042A00BE00C301C401E12A0230C5000030C60083
:10043A00CC2A6108AD00AE012D08F9002E08FA0099
:10044A004408FC004308FB009F3157278131790893
:10045A0040015F07AF007A08603DB0003D082F07F2
:10046A00B1003E08303DB200310845078400320829
:10047A00463D85000008B300B4013308B5003408CE
:10048A00B600C7010130AD000030AE00470A4F2A5E
:10049A00AD35AE0D890B4D2A35082D05AF0036084E
:1004AA002E05B0002F08300403195C2A5D2AB72AEA
:1004BA006508031D612A622A8D2A45082807AD00AE
:1004CA004608293DAE002D08FE3EF900FF302E3DBC
:1004DA00FA004708AF00B0014408B2004308B1006F
:1004EA00B135B20DB135B20DB135B20D2F083107A4
:1004FA00B3003008323DB4002A083307FB002B084A
:10050A00343DFC00FD01FD0A8031F8208131BD2A0D
:10051A0045082807AD004608293DAE002D08FE3ED5
:10052A00F900FF302E3DFA004708AF00B001440839
:10053A00B2004308B100B135B20DB135B20DB135D3
:10054A00B20D2F083107B3003008323DB4002A0833
:10055A003307FB002B08343DFC00FD018031F820F5
:10056A008131BD2A6508031DBB2ABC2A622A8D2A4D
:10057A0001304001AD002D08C70708304702031CAF
:10058A00C72AC82A472A0130C5070030C63D610874
:10059A00FE3EAD00FF3003180030AE002E084602C2
:1005AA00031DD92A2D084502031CDC2ADD2A1E2A2E
:1005BA000130C3070030C43D0830F0000030F100BC
:1005CA006208AD00AE012D08F2002E08F30080315A
:1005DA0007208131710840014402031DF62A700880
:1005EA004302031CF92AFA2A192ACE2B0830F000F2
:1005FA000030F1006108AD00AE012D08F9002E08A7
:10060A00FA006208AF00B0012F08FB003008FC00B6
:10061A009F31572781317A08F3007908F200803137
:10062A000720813171084001BA007008B9006308D7
:10063A002C02F900FA01031CFA033A08FC003908F3
:10064A00FB009F31572781317908043E4001BD00E4
:10065A0000307A3DBE005F083D07840060083E3DD9
:10066A0085000008AD00AE012D08B7002E08B800BD
:10067A000730BB000030BC00BF01C001C12B4001E4
:10068A00C101C201AF2B01304001AD000030AE0004
:10069A003B0A512BAD35AE0D890B4F2B37082D0573
:1006AA00AF0038082E05B0002F08300403195E2B5E
:1006BA005F2B872B6508031D632B642B762B3F0862
:1006CA002807F9004008293DFA0041082A07FB00DB
:1006DA0042082B3DFC00FD01FD0A8031F8208131E2
:1006EA008D2B3F082807F9004008293DFA004108E8
:1006FA002A07FB0042082B3DFC00FD018031F8204F
:10070A0081318D2B6508031D8B2B8C2B642B762B4B
:10071A00FF304001BB07FF30BC3DBC1F952B962B19
:10072A00AB2B0730BB000030BC000130BD070030E6
:10073A00BE3D5F083D07840060083E3D8500000815
:10074A00AD00AE012D08B7002E08B8000130C10770
:10075A000030C23D4208803AAD0080302D02031DB0
:10076A00B82B62084102031CBB2BBC2B482B01305F
:10077A004001BF070030C03D4008803AAD008030DC
:10078A002D02031DCA2B61083F02031CCD2BCE2B61
:10079A00442B0800FF34FF34FF34FF34FF34FF34A6
:1007AA00FF34FF34003400340034003400340034A1
:1007BA00003400340034003400340034003400348F
:1007CA00003400340034003400340034003400347F
:1007DA00003400340034003400340034003400346F
:1007EA00003400340034003400340034003400345F
:100F9A0000340034CF30840083308500F03086007E
:100FAA00233087000430FF0000309E31F626873157
:100FBA001C3084009F308500BD30860000308700D9
:100FCA000030FF000F309E31F6268731DF01E00145
:100FDA00E101E201E301E401E501A030840000300F
:100FEA0085001D30FE000030FF009E31EA26873161
:100FFA0040019731822F1034103420345F3400348A
:10100A000034003400340034003400340034003436
:10101A000034003400340034003400340034003426
:10102A000034003400340034003400340034003416
:10103A000034003400340034003400340034003406
:10104A00003400340034F834FC34FC34FC34F83412
:10105A0000340034003400340034003400340034E6
:10106A00003400340034003473347334733400347D
:10107A0000340034003400340034003400340034C6
:10108A000034003400341E343E343E34003400341C
:10109A0000343E343E341E3400340034003400340C
:1010AA000034003400340034003400340034003496
:1010BA000034003400340034003400340034003486
:1010CA00303430343034FE34FE343034303430345A
:1010DA003034FE34FE3430343034303400340034AA
:1010EA000C340C340C347F347F340C340C340C3410
:1010FA000C347F347F340C340C340C340034003418
:10110A0000340034F034F8349834FE349834983487
:10111A00FE349834983418340034003400340034DF
:10112A00003400341834193419347F34193419341A
:10113A007F3419341F340F3400340034003400343F
:10114A000034003400343834383438348034C0340D
:10115A00E03470343834003400340034003400345D
:10116A000034003400341C340E34073403340134A0
:10117A001C341C341C340034003400340034003471
:10118A00003400343834FC34C434C434FC343834C5
:10119A000034003400348034003400340034003425
:1011AA00003400341E343F342134213433343F3484
:1011BA001E341E34373423340034003400340034EF
:1011CA0000340034003420343C343C341C340034C1
:1011DA000034003400340034003400340034003465
:1011EA000034003400340034003400340034003455
:1011FA000034003400340034003400340034003445
:10120A00003400340034C034E034F03438341C3450
:10121A000C34043404340034003400340034003410
:10122A00003400340034033407340F341C343834A7
:10123A003034203420340034003400340034003494
:10124A00003400340034043404340C341C3438348C
:10125A00F034E034C0340034003400340034003454
:10126A0000340034003420342034303438341C3410
:10127A000F340734033400340034003400340034AB
:10128A000034803488349034E034E034FC34FC3464
:10129A00E034E0349034883480340034003400344C
:1012AA000034013411340934073407343F343F34ED
:1012BA00073407340934113401340034003400345B
:1012CA00003400340034803480348034F034F03414
:1012DA0080348034803400340034003400340034E4
:1012EA000034003400340134013401340F340F3433
:1012FA000134013401340034003400340034003441
:10130A000034003400340034003400340034003433
:10131A000034003400340034003400340034003423
:10132A0000340034003440347834783438340034AB
:10133A000034003400340034003400340034003403
:10134A0000340034803480348034803480348034F3
:10135A0080348034803480340034003400340034E3
:10136A0000340034013401340134013401340134CD
:10137A0001340134013401340034003400340034BF
:10138A0000340034003400340034003400340034B3
:10139A0000340034003400340034003400340034A3
:1013AA0000340034003400343834383438340034EB
:1013BA000034003400340034003400340034003483
:1013CA000034003400340034003400340034003473
:1013DA008034C034E034703438341C34003400347F
:1013EA00003400342034303438341C340E3407349A
:1013FA00033401340034003400340034003400343F
:10140A0000340034F834FC34FC3404348434E434D6
:10141A007434FC34FC34F8340034003400340034BE
:10142A00003400341F343F343F342E3427342134FF
:10143A0020343F343F341F34003400340034003445
:10144A0000340034603460346034F034FC34FC34EA
:10145A0000340034003400340034003400340034E2
:10146A00003400342034203420343F343F343F34B5
:10147A002034203420340034003400340034003462
:10148A000034003418341C341C34043404348434D6
:10149A00CC34FC3478343034003400340034003432
:1014AA0000340034303438343C342E342734233476
:1014BA0021343834383438340034003400340034B9
:1014CA000034003418341C341C3484348434843496
:1014DA00CC347C3478343034003400340034003472
:1014EA000034003418343834383421342134213467
:1014FA0033343E341E340C340034003400340034A7
:10150A00003400348034C034603430341834FC344D
:10151A00FC34FC3400340034003400340034003429
:10152A0000340034033403340334233423343F3483
:10153A003F343F342334233400340034003400343D
:10154A0000340034FC34FC34FC3484348434843471
:10155A0084348434043404340034003400340034D1
:10156A0000340034193439343934213421342134E3
:10157A0033343F341F340E34003400340034003422
:10158A0000340034E034F034F8349C348C3484343D
:10159A008434843480340034003400340034003419
:1015AA00003400341F343F343F3421342134213491
:1015BA0021343F343F341F340034003400340034C3
:1015CA00003400343C343C343C34043404340434B1
:1015DA0004348434FC34FC347C3400340034003465
:1015EA000034003400340034003438343C343E349F
:1015FA000734033401340034003400340034003436
:10160A000034003478347C34FC34C434C434843434
:10161A008434FC347C3478340034003400340034AC
:10162A00003400341E343E343F3421342134233410
:10163A0023343F343E341E34003400340034003442
:10164A0000340034F834FC34FC3484348434843474
:10165A008434FC34FC34F83400340034003400346C
:10166A00003400340034013421342134213431343B
:10167A0039341F340F340734003400340034003452
:10168A000034003400340034003470347034703460
:10169A0000340034003400340034003400340034A0
:1016AA00003400340034003400340E340E340E3466
:1016BA000034003400340034003400340034003480
:1016CA000034003400340034003470347034703420
:1016DA000034003400340034003400340034003460
:1016EA00003400340034003410341E341E340E34F6
:1016FA000034003400340034003400340034003440
:10170A00003400348034C034E034703438341C344B
:10171A000E34063402340034003400340034003409
:10172A00003400340134033407340E341C343834A2
:10173A0070346034403400340034003400340034EF
:10174A00003460346034603460346034603460344F
:10175A0060346034603460346034003400340034FF
:10176A0000340634063406340634063406340634A5
:10177A0006340634063406340634003400340034A1
:10178A0000340034023406340E341C3438347034D5
:10179A00E034C0348034003400340034003400347F
:1017AA000034003440346034703438341C340E341D
:1017BA000734033401340034003400340034003474
:1017CA000034003418341C340C340E340634863495
:1017DA00CE34FC347C3438340034003400340034E1
:1017EA000034003400340034003400347334733469
:1017FA0073340034003400340034003400340034CC
:10180A0000340034FC34FE34FE3402340234C23470
:10181A00C234C234FE34FE34FC34003400340034A2
:10182A00003400343F343F347F34603460346334EE
:10183A00633463346334433403340034003400348F
:10184A0000340034E034F034F8341C340C340C34F2
:10185A001C34F834F034E0340034003400340034FA
:10186A00003400343F343F343F340234023402340B
:10187A0002343F343F343F340034003400340034FF
:10188A00003400340434FC34FC34FC3484348434AE
:10189A008434FC34FC3478340034003400340034AA
:1018AA000034003420343F343F343F34213421346F
:1018BA0021343F343F341E340034003400340034C1
:1018CA0000340034F034F834FC340C340434043476
:1018DA0004341C341C34183400340034003400340A
:1018EA00003400340F341F343F3430342034203471
:1018FA002034383438341834003400340034003496
:10190A00003400340434FC34FC34FC34043404342D
:10191A000C34FC34F834F03400340034003400342D
:10192A000034003420343F343F343F3420342034F0
:10193A0030343F341F340F34003400340034003460
:10194A00003400340434FC34FC34FC3484348434ED
:10195A008434C434CC341C340034003400340034AD
:10196A000034003420343F343F343F3421342134AE
:10197A00213423343334383400340034003400340E
:10198A00003400340434FC34FC34FC3484348434AD
:10199A008434C434CC341C3400340034003400346D
:1019AA000034003420343F343F343F34213401348E
:1019BA000134033403340034003400340034003476
:1019CA0000340034F034F834FC340C340434043475
:1019DA0004343C343C3438340034003400340034A9
:1019EA00003400340F341F343F343034203422346E
:1019FA0022343E343E343E34003400340034003461
:101A0A0000340034FC34FC34FC34803480348034B8
:101A1A00FC34FC34FC340034003400340034003428
:101A2A00003400343F343F343F340134013401344C
:101A3A003F343F343F34003400340034003400343F
:101A4A0000340034003404340434FC34FC34FC34F0
:101A5A0004340434003400340034003400340034D4
:101A6A00003400340034203420343F343F343F34CF
:101A7A00203420340034003400340034003400347C
:101A8A0000340034003400340034003404340434A4
:101A9A00FC34FC34FC3404340434003400340034A0
:101AAA0000341E341E343E34203420342034203492
:101ABA003F343F341F3400340034003400340034DF
:101ACA00003400340434FC34FC34FC34C034E034D4
:101ADA0070343C341C340C34003400340034003488
:101AEA000034003420343F343F343F340334073465
:101AFA000E343C343834303400340034003400348A
:101B0A00003400340434FC34FC34FC34043400342F
:101B1A00003400340034003400340034003400341B
:101B2A000034003420343F343F343F3420342034EE
:101B3A002034303438343C34003400340034003437
:101B4A0000340034FC34FC34FC347834F034E034AF
:101B5A00F0347834FC34FC34FC340034003400347F
:101B6A00003400343F343F343F340034003401340D
:101B7A00003400343F343F343F34003400340034FE
:101B8A0000340034FC34FC34FC347034E034C034A7
:101B9A0080340034FC34FC34FC3400340034003427
:101BAA00003400343F343F343F34003400340134CD
:101BBA00033407343F343F343F34003400340034B4
:101BCA0000340034E034F034F8341C340C340C346F
:101BDA000C341C34F834F034E0340034003400346B
:101BEA000034003407340F341F343834303430347E
:101BFA00303438341F340F3407340034003400349E
:101C0A00003400340434FC34FC34FC34843484342A
:101C1A008434FC34FC347834003400340034003426
:101C2A000034003420343F343F343F34213401340B
:101C3A0001340134013400340034003400340034F7
:101C4A0000340034E034F834F8341C340C340434EE
:101C5A000C341C34F834F834E034003400340034E2
:101C6A000034003407341F341F34183418345C34F9
:101C7A005E347E347F347F34473400340034003499
:101C8A00003400340434FC34FC34FC3484348434AA
:101C9A008434FC34FC3478340034003400340034A6
:101CAA000034003420343F343F343F3401340134AB
:101CBA0003343F343F343C340034003400340034BD
:101CCA00003400347834FC34FC348434843484346E
:101CDA008434BC343C3438340034003400340034A6
:101CEA00003400341C343C343D3421342134213452
:101CFA0021343F343F341E3400340034003400347D
:101D0A00003400341C340C3404340434FC34FC3401
:101D1A00FC34043404340C341C34003400340034ED
:101D2A000034003400340034203420343F343F344B
:101D3A003F3420342034003400340034003400347A
:101D4A0000340034FC34FC34FC34003400340034F5
:101D5A00FC34FC34FC3400340034003400340034E5
:101D6A00003400341F343F343F34203420342034CC
:101D7A003F343F341F34003400340034003400341C
:101D8A0000340034FC34FC34FC34003400340034B5
:101D9A00FC34FC34FC3400340034003400340034A5
:101DAA000034003407340F341F34383430343834B4
:101DBA001F340F3407340034003400340034003444
:101DCA0000340034FC34FC34FC34003400348034F5
:101DDA0000340034FC34FC34FC3400340034003465
:101DEA000034003403340F343F343C343C340F3471
:101DFA003C343C343F340F34033400340034003470
:101E0A00003400341C343C347C34E034C034E034D4
:101E1A007C343C341C340034003400340034003444
:101E2A000034003438343C343E3407340334073445
:101E3A003E343C3438340034003400340034003446
:101E4A00003400347C34FC34FC3480340034803474
:101E5A00FC34FC347C340034003400340034003464
:101E6A00003400340034203421343F343F343F34CA
:101E7A002134203400340034003400340034003477
:101E8A00003400343C341C340C3404348434C434F8
:101E9A00E4347C343C341C340034003400340034E0
:101EAA000034003438343C343E342734233421346B
:101EBA002034303438343C340034003400340034B4
:101ECA000034003400340034FC34FC34FC34043470
:101EDA00043404340434003400340034003400344C
:101EEA0000340034003400343F343F343F3420346B
:101EFA0020342034203400340034003400340034D8
:101F0A00003400341C3438347034E034C034803443
:101F1A000034003400340034003400340034003417
:101F2A000034003400340034003400340134033403
:101F3A0007340E341C34183430342034203400343E
:101F4A0000340034003400340434043404340434D7
:101F5A00FC34FC34FC3400340034003400340034E3
:101F6A000034003400340034203420342034203447
:101F7A003F343F343F3400340034003400340034FA
:101F8A00003400342034303438341C340E340E34E7
:101F9A001C343834303420340034003400340034F3
:101FAA000034003400340034003400340034003487
:101FBA000034003400340034003400340034003477
:101FCA000034003400340034003400340034003467
:101FDA000034003400340034003400340034003457
:101FEA00C034C034C034C034C034C034C034C03447
:101FFA00C034C034C034C034C034C034C0340034F7
:10200A00003400340C340C343C3430343034003472
:10201A000034003400340034003400340034003416
:10202A000034003400340034003400340034003406
:10203A0000340034003400340034003400340034F6
:10204A0000340034003440344034403440344034A6
:10205A00C034C034803400340034003400340034D6
:10206A00003400341C343E343E34223422342234C8
:10207A003F341F343F3420340034003400340034F9
:10208A00003400340434FC34FC34FC34403440342E
:10209A004034C034C0348034003400340034003456
:1020AA000034003420343F341F343F342034203489
:1020BA0020343F343F341F340034003400340034B9
:1020CA00003400348034C034C034403440344034A6
:1020DA00C034C03480340034003400340034003456
:1020EA00003400341F343F343F3420342034203449
:1020FA0039343934193400340034003400340034AB
:10210A00003400348034C034C03440344034443461
:10211A00FC34FC34FC34043400340034003400341D
:10212A00003400341F343F343F3420342034203408
:10213A003F341F343F342034003400340034003438
:10214A00003400348034C034C03440344034403425
:10215A00C034C034803400340034003400340034D5
:10216A00003400341F343F343F34223422342234C2
:10217A003B343B341B340034003400340034003424
:10218A000034003480348034F834FC34FC34843431
:10219A009C349C3418340034003400340034003445
:1021AA0000340034213421343F343F343F34213465
:1021BA002134013400340034003400340034003453
:1021CA00003400348034C034C034403440344034A5
:1021DA00C0348034C0344034003400340034003415
:1021EA00003400344734CF34DF3498349834983488
:1021FA00FF34FF347F3400340034003400340034B8
:10220A00003400340434FC34FC34FC34803440346C
:10221A004034C034C03480340034003400340034D4
:10222A000034003420343F343F343F340134003426
:10223A0000343F343F343F34003400340034003437
:10224A00003400340034403440344034DC34DC346C
:10225A00DC340034003400340034003400340034F8
:10226A000034003400342034203420343F343F34E6
:10227A003F34203420342034003400340034003415
:10228A0000340034003400340034403440344034E4
:10229A00DC34DC34DC340034003400340034003400
:1022AA000034003420346034E03480348034C03464
:1022BA00FF34FF347F3400340034003400340034F7
:1022CA00003400340434FC34FC34FC34003400346C
:1022DA008034C034C0344034003400340034003414
:1022EA000034003420343F343F343F34023407345E
:1022FA000F343D3438343034003400340034003480
:10230A00003400340034043404340434FC34FC341F
:10231A00FC34003400340034003400340034003417
:10232A000034003400342034203420343F343F3425
:10233A003F34203420342034003400340034003454
:10234A0000340034C034C034C03440344034C03463
:10235A0040344034C034C034803400340034003453
:10236A00003400343F343F343F34003400343F34C7
:10237A00003400343F343F343F34003400340034F6
:10238A0000340034C034C034C034403440344034A3
:10239A00C034C03480340034003400340034003493
:1023AA00003400343F343F343F34003400340034C6
:1023BA003F343F343F3400340034003400340034B6
:1023CA00003400348034C034C034403440344034A3
:1023DA00C034C03480340034003400340034003453
:1023EA00003400341F343F343F3420342034203446
:1023FA003F343F341F340034003400340034003496
:10240A00003400344034C0348034C0344034403462
:10241A004034C034C03480340034003400340034D2
:10242A00003400348034FF34FF34FF3490341034E5
:10243A0010341F341F340F34003400340034003495
:10244A0000348034C034C034403440344034C03462
:10245A008034C03440340034003400340034003452
:10246A0000340F341F341F34103410349034FF34C6
:10247A00FF34FF3480340034003400340034003434
:10248A00003400344034C034C034C0348034C034E2
:10249A00C034C034C03480340034003400340034D2
:1024AA000034003420343F343F343F342134003484
:1024BA00003401340134013400340034003400346F
:1024CA00003400348034C034C034403440344034A2
:1024DA004034C034803400340034003400340034D2
:1024EA000034003419343B34233426342634263459
:1024FA003C343D34193400340034003400340034A0
:10250A000034003440344034E034F034F834403499
:10251A004034403440340034003400340034003451
:10252A0000340034003400341F343F343F34203444
:10253A003834383418340034003400340034003469
:10254A0000340034C034C034C034003400340034A1
:10255A00C034C034C0340034003400340034003491
:10256A00003400341F343F343F34203420342034C4
:10257A003F341F343F3420340034003400340034F4
:10258A0000340034C034C034C03400340034003461
:10259A00C034C034C0340034003400340034003451
:1025AA000034003407340F341F34383430343834AC
:1025BA001F340F340734003400340034003400343C
:1025CA0000340034C034C034C03400340034003421
:1025DA0000340034C034C034C03400340034003411
:1025EA000034003407340F343F34383438340E346E
:1025FA00383438343F340F3407340034003400346C
:10260A0000340034C034C034C03400340034C03420
:10261A00C034C03400340034003400340034003490
:10262A0000340034303439343F340F340F343F34FB
:10263A003934303400340034003400340034003487
:10264A00003400340034C034C034C03400340034A0
:10265A000034C034C034C034003400340034003490
:10266A0000340034803487348F349F34D834F834BB
:10267A0078343F340F3407340034003400340034E3
:10268A0000340034C034C034403440344034C034A0
:10269A00C034C03400340034003400340034003410
:1026AA0000340034313438343C342E342734233463
:1026BA003134383400340034003400340034003407
:1026CA000034003480348034C03478347C343C3470
:1026DA000434043404340434003400340034003440
:1026EA00003400340134013403341E343E343C34A3
:1026FA0020342034203420340034003400340034B0
:10270A00003400340034003400340034FE34FE3423
:10271A00FE34003400340034003400340034003411
:10272A000034003400340034003400347F347F3401
:10273A007F34003400340034003400340034003470
:10274A000034003404340434043404343C347C3417
:10275A007834C03480348034003400340034003497
:10276A000034003420342034203420343C343E34C5
:10277A001E3403340134013400340034003400348C
:10278A00003438343C343C3404340C341C3438348B
:10279A00303420343C343C341C34003400340034AB
:1027AA00003400340034003400340034003400347F
:1027BA000034003400340034003400340034063469
:1027CA00083420345F3400340034003400340034D8
:1027DA0000340034003400342F3400340034003420
:1027EA0000340734003407340034003414347F349E
:1027FA0014347F341434003424342A347F342A3491
:10280A001234003423341334083464346234003408
:10281A0036344934553422345034003400340534C3
:10282A00033400340034003400341C34223441347C
:10283A00003400340034413422341C34003400346F
:10284A00143408343E340834143400340834083458
:10285A003E3408340834003400340034A034603480
:10286A000034003408340834083408340834003496
:10287A0000346034603400340034003420341034BE
:10288A0008340434023400343E3451344934453473
:10289A003E340034003442347F344034003400344F
:1028AA004234613451344934463400342134413499
:1028BA0045344B34313400341834143412347F34F0
:1028CA00103400342734453445344534393400341F
:1028DA003C344A3449344934303400340134713494
:1028EA00093405340334003436344934493449341C
:1028FA003634003406344934493429341E34003419
:10290A00003436343634003400340034003456345B
:10291A003634003400340034083414342234413458
:10292A000034003414341434143414341434003499
:10293A00003441342234143408340034023401346B
:10294A005134093406340034323449345934513458
:10295A003E3400347C341234113412347C34003462
:10296A007F34493449344934363400343E344134AE
:10297A0041344134223400347F34413441342234E6
:10298A001C3400347F3449344934493441340034E6
:10299A007F34093409340934013400343E34413473
:1029AA00493449347A3400347F34083408340834DA
:1029BA007F340034003441347F34413400340034ED
:1029CA002034403441343F34013400347F340834F5
:1029DA0014342234413400347F3440344034403497
:1029EA00403400347F3402340C3402347F340034EF
:1029FA007F340434083410347F3400343E34413494
:102A0A00413441343E3400347F34093409340934C2
:102A1A00063400343E344134513421345E340034B7
:102A2A007F3409341934293446340034463449345D
:102A3A004934493431340034013401347F340134A7
:102A4A00013400343F344034403440343F3400349D
:102A5A001F342034403420341F3400343F3440348F
:102A6A00383440343F340034633414340834143472
:102A7A0063340034073408347034083407340034BB
:102A8A0061345134493445344334003400347F349A
:102A9A00413441340034AA345534AA345534AA3462
:102AAA00553400340034413441347F340034003426
:102ABA0004340234013402340434003440344034DF
:102ACA004034403440340034003403340534003494
:102ADA0000340034203454345434543478340034B8
:102AEA007F34483444344434383400343834443439
:102AFA00443444342034003438344434443448347C
:102B0A007F34003438345434543454341834003450
:102B1A0008347E3409340134023400341834A434BD
:102B2A00A434A4347C3400347F34083404340434A8
:102B3A0078340034003444347D3440340034003472
:102B4A004034803484347D34003400347F3410348B
:102B5A002834443400340034003441347F3440345F
:102B6A00003400347C3404341834043478340034A7
:102B7A007C3408340434043478340034383444342B
:102B8A004434443438340034FC3424342434243473
:102B9A00183400341834243424341834FC340034FF
:102BAA007C3408340434043408340034483454344B
:102BBA00543454342034003404343F3444344034DC
:102BCA00203400343C344034403420347C340034E3
:102BDA001C342034403420341C3400343C34403417
:102BEA00303440343C3400344434283410342834EB
:102BFA00443400341C34A034A034A0347C3400346F
:102C0A004434643454344C3444340034003410347E
:102C1A007C3482340034003400340034FF3400340D
:102C2A0000340034003482347C34103400340034EC
:102C3A0000340634093409340634043406342034A2
:102C4A005F340034003400340334A0340034C03418
:102C5A000C340034F9344F3480346B34EB340034A0
:102C6A0098348C3480345234A5348034033400349C
:102C7A0000340134C83480348934C03400345034C8
:102C8A00853400342134C2340034083440340034EA
:102C9A0020348234003400342034003418348C3424
:102CAA000034FA342F3480344B34E03480345A34CC
:102CBA00663480348A34A5340034E0348F34803466
:102CCA00EA34AB3400347234A93400349A348C3484
:102CDA000034FA34AF3480344A34A734003401342F
:102CEA0040340034093440340034213448348034C8
:102CFA005134453400348934423400344234663421
:102D0A0000347234A63480347A3487348034FA3406
:102D1A00A5340034723425340034FA3427340034AC
:102D2A00FA34A8348034FA348834003472342B34B8
:102D3A000034F8348F3480348B34E83480348B3464
:102D4A00E8340034F8348D348034F8342034803454
:102D5A00F9340F348034F934CF3480347234273460
:102D6A000034FA3484340034723427344034FA3468
:102D7A00853480344A34A93400348334E834003446
:102D8A00F0342F340034E0346E340034F034EF344D
:102D9A000034D8348D348034C034EC3400349A345E
:102DAA00AC3480340334E8348034C0348134803421
:102DBA008B34E03400344234043400340834203490
:102DCA008034023404340034313423348034F93406
:102DDA002334003431342434803431342F34803471
:102DEA003134623480342334EA34003425345334A1
:102DFA008034F934033480340234E0340034063445
:102E0A00E0340034F834423480340334E03400349B
:102E1A007934873480343934033480343134233478
:102E2A0000347D342334003431342734C0347834C8
:102E3A00843400342934403400344334E4340034D4
:102E4A0070342734003460346634003470346734A4
:102E5A0000344834C4348034743457348034593498
:102E6A00E63480342334E834803403346034003464
:0C2E7A008B34E234003461340C3400343A
:102E88004030080071084001E0007008DF00700859
:102E98008400710885000008F2007208E1007108DA
:102EA800F3007008F20001307207840073080318F9
:102EB800730A85000008F4007408E2007108F30042
:102EC8007008F20002307207840073080318730A4E
:102ED80085000008F4007408E3007108F300700826
:102EE800F20003307207840073080318730A850020
:102EF8000008F4007408E400E50108009F310F277A
:102F0800973105304001C9000F30C800F130890BF6
:102F18008B2FC80B8B2FC90B8B2F803166209731D5
:102F28004001DC01DD01DE01BD3086000030870094
:102F38004B308400003085000F30C80016001A009E
:102F4800C80BA22F5C08C800C9014808F900490845
:102F5800FA000C30FB000030FC009F3157279731F6
:102F68007A084001DB007908DA005B08A9005A08F2
:102F7800A8005D08C800C901C80EC90EF030C9050F
:102F880048080F39C904F030C8054808AA0049089C
:102F9800AB005E084B3E860087010108CA004A085C
:102FA800AC008131D42197319F31A8279731013066
:102FB8004001C8004808DC070A305C02031CE52F02
:102FC800E62FF22FDC010130C8004808DD07043085
:102FD8005D02031CF02FF12FF22FDD010130C80034
:102FE8004808DE070F305E02031CFB2FFC2FA62FBC
:082FF800DE01A62F8031022842
:103D6A00430111151119BA2EBB2EB72E08004301B3
:103D7A0011141118C12EC22EBE2E08004F01960131
:103D8A009701980199019A019B01080043018F014B
:103D9A000830900091014F308D0090120800603079
:103DAA0051018D008F01910106309300900192011B
:103DBA000800F000700843018C000F18E52EE62E6B
:103DCA00E22E9F3102279E310800640080010131F2
:103DDA000130FE020030FF3B7F087E04031DEB2EFC
:103DEA000034FE0012001E000130FE020030FF3BCC
:103DFA007F087E04031DF72E003443010F19062F96
:103E0A00072F022F111F0A2F0B2F0E2F9E31B526B7
:103E1A009F3108009E31C3269F319E31CB269F31A8
:103E2A009F3179279F319E31D4269F310800523421
:103E3A0061346634663465346C34203453347934EE
:103E4A007334743465346D3473342034F1009E3124
:103E5A00BC269F3178309E31DE269F3100309E315C
:103E6A00DE269F3171089E31DE269F319E31B526AE
:103E7A009F310800F1001830F000700840019404E6
:103E8A007103031D492F4A2F4D2F43018F17522FBC
:103E9A007F30F000700843018F05283090001330FE
:103EAA008D0008004001A001A101791C5D2F5E2F41
:103EBA00632F7B084001A0077C08A13D0130FB3538
:103ECA00FC0D890B642F0130FA36F90C890B692F26
:103EDA0079087A04031D722F732F5A2F4001210883
:103EEA00FA002008F90008004001980199019A0196
:103EFA00FF309200FF309300FF3094007E01CE0124
:103F0A00C301B801E501C401B901CF01BA01C50174
:103F1A00D001FF30BB00FF30C600FF30D100FF30B8
:103F2A00BC00FF30C700FF30D2000830E800133071
:103F3A007D01C50015307E01A3001630A40014309F
:103F4A007D01C6000800F50121309F312B279F31E2
:103F5A0000309F312B279F317F309F312B279F3194
:103F6A0022309F312B279F3100309F312B279F31E1
:103F7A0007309F312B279F319E31BC269F317830E5
:103F8A009E31DE269F3140309E31DE269F31F6017A
:103F9A00F701F501F030F3002330F40076087307D7
:103FAA0086007708743D870001089E31DE269F311E
:103FBA000130F6070030F73D0130F3007308F507CA
:103FCA0010307502031CEA2FEB2FCF2F0130F602B7
:103FDA000030F73B0130F6070030F73D0430770236
:103FEA00003003197602031CFB2FFC2FCE2F9E31C3
:103FFA00B5269F3108000034003400340034003400
:10400A000034003400340034003400340034003406
:10401A0000340034003400340034003400340034F6
:10402A0000340034003400340034003400340034E6
:06403A00003400340034E4
:020000040001F9
:0A000E00EC3FFF3F9F3FFF3FFF3F25
:00000001FF
